{
  "contractName": "DecentralizedAuction",
  "abi": [
    {
      "inputs": [],
      "stateMutability": "nonpayable",
      "type": "constructor"
    },
    {
      "anonymous": false,
      "inputs": [
        {
          "indexed": false,
          "internalType": "uint256",
          "name": "itemId",
          "type": "uint256"
        },
        {
          "indexed": false,
          "internalType": "string",
          "name": "name",
          "type": "string"
        },
        {
          "indexed": false,
          "internalType": "uint256",
          "name": "minBid",
          "type": "uint256"
        },
        {
          "indexed": false,
          "internalType": "uint256",
          "name": "buyoutPrice",
          "type": "uint256"
        }
      ],
      "name": "AuctionCreated",
      "type": "event"
    },
    {
      "anonymous": false,
      "inputs": [
        {
          "indexed": false,
          "internalType": "uint256",
          "name": "itemId",
          "type": "uint256"
        },
        {
          "indexed": false,
          "internalType": "address",
          "name": "winner",
          "type": "address"
        },
        {
          "indexed": false,
          "internalType": "uint256",
          "name": "amount",
          "type": "uint256"
        }
      ],
      "name": "AuctionEnded",
      "type": "event"
    },
    {
      "anonymous": false,
      "inputs": [
        {
          "indexed": false,
          "internalType": "uint256",
          "name": "itemId",
          "type": "uint256"
        },
        {
          "indexed": false,
          "internalType": "address",
          "name": "bidder",
          "type": "address"
        },
        {
          "indexed": false,
          "internalType": "uint256",
          "name": "amount",
          "type": "uint256"
        }
      ],
      "name": "HighestBidIncreased",
      "type": "event"
    },
    {
      "anonymous": false,
      "inputs": [
        {
          "indexed": false,
          "internalType": "uint256",
          "name": "itemId",
          "type": "uint256"
        },
        {
          "indexed": false,
          "internalType": "address",
          "name": "buyer",
          "type": "address"
        },
        {
          "indexed": false,
          "internalType": "uint256",
          "name": "amount",
          "type": "uint256"
        }
      ],
      "name": "ItemBoughtOut",
      "type": "event"
    },
    {
      "anonymous": false,
      "inputs": [
        {
          "indexed": false,
          "internalType": "address",
          "name": "userAddress",
          "type": "address"
        },
        {
          "indexed": false,
          "internalType": "string",
          "name": "username",
          "type": "string"
        }
      ],
      "name": "UserRegistered",
      "type": "event"
    },
    {
      "inputs": [
        {
          "internalType": "uint256",
          "name": "",
          "type": "uint256"
        }
      ],
      "name": "items",
      "outputs": [
        {
          "internalType": "uint256",
          "name": "id",
          "type": "uint256"
        },
        {
          "internalType": "address payable",
          "name": "seller",
          "type": "address"
        },
        {
          "internalType": "string",
          "name": "name",
          "type": "string"
        },
        {
          "internalType": "string",
          "name": "imageUrl",
          "type": "string"
        },
        {
          "internalType": "uint256",
          "name": "minBid",
          "type": "uint256"
        },
        {
          "internalType": "uint256",
          "name": "buyoutPrice",
          "type": "uint256"
        },
        {
          "internalType": "address",
          "name": "highestBidder",
          "type": "address"
        },
        {
          "internalType": "uint256",
          "name": "highestBid",
          "type": "uint256"
        },
        {
          "internalType": "bool",
          "name": "ended",
          "type": "bool"
        }
      ],
      "stateMutability": "view",
      "type": "function",
      "constant": true
    },
    {
      "inputs": [
        {
          "internalType": "address",
          "name": "",
          "type": "address"
        }
      ],
      "name": "registered",
      "outputs": [
        {
          "internalType": "bool",
          "name": "",
          "type": "bool"
        }
      ],
      "stateMutability": "view",
      "type": "function",
      "constant": true
    },
    {
      "inputs": [
        {
          "internalType": "address",
          "name": "",
          "type": "address"
        }
      ],
      "name": "users",
      "outputs": [
        {
          "internalType": "string",
          "name": "username",
          "type": "string"
        },
        {
          "internalType": "address",
          "name": "walletAddress",
          "type": "address"
        }
      ],
      "stateMutability": "view",
      "type": "function",
      "constant": true
    },
    {
      "inputs": [
        {
          "internalType": "string",
          "name": "_username",
          "type": "string"
        }
      ],
      "name": "registerUser",
      "outputs": [],
      "stateMutability": "nonpayable",
      "type": "function"
    },
    {
      "inputs": [
        {
          "internalType": "address",
          "name": "_userAddress",
          "type": "address"
        }
      ],
      "name": "getUser",
      "outputs": [
        {
          "components": [
            {
              "internalType": "string",
              "name": "username",
              "type": "string"
            },
            {
              "internalType": "address",
              "name": "walletAddress",
              "type": "address"
            }
          ],
          "internalType": "struct DecentralizedAuction.User",
          "name": "",
          "type": "tuple"
        }
      ],
      "stateMutability": "view",
      "type": "function",
      "constant": true
    },
    {
      "inputs": [
        {
          "internalType": "string",
          "name": "name",
          "type": "string"
        },
        {
          "internalType": "string",
          "name": "imageUrl",
          "type": "string"
        },
        {
          "internalType": "uint256",
          "name": "minBid",
          "type": "uint256"
        },
        {
          "internalType": "uint256",
          "name": "buyoutPrice",
          "type": "uint256"
        },
        {
          "internalType": "uint256",
          "name": "biddingTime",
          "type": "uint256"
        }
      ],
      "name": "addItem",
      "outputs": [],
      "stateMutability": "nonpayable",
      "type": "function"
    },
    {
      "inputs": [
        {
          "internalType": "uint256",
          "name": "itemId",
          "type": "uint256"
        }
      ],
      "name": "bid",
      "outputs": [],
      "stateMutability": "payable",
      "type": "function",
      "payable": true
    },
    {
      "inputs": [
        {
          "internalType": "uint256",
          "name": "itemId",
          "type": "uint256"
        }
      ],
      "name": "buyout",
      "outputs": [],
      "stateMutability": "payable",
      "type": "function",
      "payable": true
    },
    {
      "inputs": [
        {
          "internalType": "uint256",
          "name": "itemId",
          "type": "uint256"
        }
      ],
      "name": "manualEndAuction",
      "outputs": [],
      "stateMutability": "nonpayable",
      "type": "function"
    },
    {
      "inputs": [],
      "name": "itemsCount",
      "outputs": [
        {
          "internalType": "uint256",
          "name": "",
          "type": "uint256"
        }
      ],
      "stateMutability": "view",
      "type": "function",
      "constant": true
    },
    {
      "inputs": [],
      "name": "getAllUserItems",
      "outputs": [
        {
          "components": [
            {
              "internalType": "uint256",
              "name": "id",
              "type": "uint256"
            },
            {
              "internalType": "address payable",
              "name": "seller",
              "type": "address"
            },
            {
              "internalType": "string",
              "name": "name",
              "type": "string"
            },
            {
              "internalType": "string",
              "name": "imageUrl",
              "type": "string"
            },
            {
              "internalType": "uint256",
              "name": "minBid",
              "type": "uint256"
            },
            {
              "internalType": "uint256",
              "name": "buyoutPrice",
              "type": "uint256"
            },
            {
              "internalType": "address",
              "name": "highestBidder",
              "type": "address"
            },
            {
              "internalType": "uint256",
              "name": "highestBid",
              "type": "uint256"
            },
            {
              "internalType": "bool",
              "name": "ended",
              "type": "bool"
            }
          ],
          "internalType": "struct DecentralizedAuction.Item[]",
          "name": "",
          "type": "tuple[]"
        }
      ],
      "stateMutability": "view",
      "type": "function",
      "constant": true
    }
  ],
  "bytecode": "0x608060405234801561001057600080fd5b50611ad6806100206000396000f3fe60806040526004361061009c5760003560e01c8063704f1b9411610064578063704f1b9414610141578063a87430ba14610161578063ab18d07a1461018f578063b2dd5c07146101af578063bfb231d2146101ef578063e2c03ace1461022457600080fd5b806307bec66f146100a15780630abe0866146100b65780632920e022146100d6578063454a2ab3146101015780636f77926b14610114575b600080fd5b6100b46100af366004611482565b610242565b005b3480156100c257600080fd5b506100b46100d136600461153e565b6104d1565b3480156100e257600080fd5b506100eb610691565b6040516100f89190611603565b60405180910390f35b6100b461010f366004611482565b610a6b565b34801561012057600080fd5b5061013461012f3660046116f2565b610d6c565b6040516100f89190611722565b34801561014d57600080fd5b506100b461015c36600461175f565b610eae565b34801561016d57600080fd5b5061018161017c3660046116f2565b610fbe565b6040516100f892919061179c565b34801561019b57600080fd5b506100b46101aa366004611482565b61106b565b3480156101bb57600080fd5b506101df6101ca3660046116f2565b60026020526000908152604090205460ff1681565b60405190151581526020016100f8565b3480156101fb57600080fd5b5061020f61020a366004611482565b611175565b6040516100f8999897969594939291906117c6565b34801561023057600080fd5b506000546040519081526020016100f8565b600054811061026c5760405162461bcd60e51b815260040161026390611838565b60405180910390fd5b600080828154811061028057610280611861565b90600052602060002090600902019050600082815481106102a3576102a3611861565b600091825260209091206008600990920201015460ff16156103005760405162461bcd60e51b815260206004820152601660248201527520bab1ba34b7b71030b63932b0b23c9032b73232b21760511b6044820152606401610263565b8060050154341461034b5760405162461bcd60e51b8152602060048201526015602482015274213abcb7baba10383934b1b2903737ba1036b2ba1760591b6044820152606401610263565b60088101805460ff1916600117905560068101546001600160a01b0316156103e857600681015460078201546040516000926001600160a01b031691908381818185875af1925050503d80600081146103c0576040519150601f19603f3d011682016040523d82523d6000602084013e6103c5565b606091505b50509050806103e65760405162461bcd60e51b815260040161026390611877565b505b60018101546040516000916001600160a01b03169034908381818185875af1925050503d8060008114610437576040519150601f19603f3d011682016040523d82523d6000602084013e61043c565b606091505b50509050806104895760405162461bcd60e51b8152602060048201526019602482015278151c985b9cd9995c881d1bc81cd95b1b195c8819985a5b1959603a1b6044820152606401610263565b6040805184815233602082015234918101919091527f713f19a7f9a1e0c7daa8679ac03a7574d05a0fa17776c383c91aafff17c7f356906060015b60405180910390a1505050565b6040805161012081018252600080548083523360208401908152938301898152606084018990526080840188905260a0840187905260c0840183905260e08401839052610100840183905260018201835591805282517f290decd9548b62a8d60345a988386fc84ba6bc95484008f6362f93160ef3e563600990920291820190815593517f290decd9548b62a8d60345a988386fc84ba6bc95484008f6362f93160ef3e564820180546001600160a01b0319166001600160a01b0390921691909117905590519192917f290decd9548b62a8d60345a988386fc84ba6bc95484008f6362f93160ef3e565909101906105c99082611948565b50606082015160038201906105de9082611948565b506080820151600482015560a0820151600582015560c08201516006820180546001600160a01b0319166001600160a01b0390921691909117905560e08201516007820155610100909101516008909101805460ff19169115159190911790556000547f5bf34ed94988e5dcdc7d1faaa54eb1d3b55f45d5f11457e235afb21a8ebbe73c9061066f90600190611a1e565b8685856040516106829493929190611a37565b60405180910390a15050505050565b3360009081526002602052604090205460609060ff166106ea5760405162461bcd60e51b81526020600482015260146024820152732ab9b2b9103737ba103932b3b4b9ba32b932b21760611b6044820152606401610263565b6000805b60005481101561075757336001600160a01b03166000828154811061071557610715611861565b60009182526020909120600160099092020101546001600160a01b031603610745578161074181611a63565b9250505b8061074f81611a63565b9150506106ee565b5060008167ffffffffffffffff8111156107735761077361149b565b60405190808252806020026020018201604052801561080757816020015b6107f46040518061012001604052806000815260200160006001600160a01b031681526020016060815260200160608152602001600081526020016000815260200160006001600160a01b03168152602001600081526020016000151581525090565b8152602001906001900390816107915790505b5090506000805b600054811015610a6257336001600160a01b03166000828154811061083557610835611861565b60009182526020909120600160099092020101546001600160a01b031603610a50576000818154811061086a5761086a611861565b906000526020600020906009020160405180610120016040529081600082015481526020016001820160009054906101000a90046001600160a01b03166001600160a01b03166001600160a01b031681526020016002820180546108cd906118bf565b80601f01602080910402602001604051908101604052809291908181526020018280546108f9906118bf565b80156109465780601f1061091b57610100808354040283529160200191610946565b820191906000526020600020905b81548152906001019060200180831161092957829003601f168201915b5050505050815260200160038201805461095f906118bf565b80601f016020809104026020016040519081016040528092919081815260200182805461098b906118bf565b80156109d85780601f106109ad576101008083540402835291602001916109d8565b820191906000526020600020905b8154815290600101906020018083116109bb57829003601f168201915b5050509183525050600482015460208201526005820154604082015260068201546001600160a01b031660608201526007820154608082015260089091015460ff16151560a0909101528351849084908110610a3657610a36611861565b60200260200101819052508180610a4c90611a63565b9250505b80610a5a81611a63565b91505061080e565b50909392505050565b6000548110610a8c5760405162461bcd60e51b815260040161026390611838565b6000808281548110610aa057610aa0611861565b60009182526020909120600990910201600881015490915060ff1615610b005760405162461bcd60e51b8152602060048201526015602482015274105d58dd1a5bdb88185b1c9958591e48195b991959605a1b6044820152606401610263565b6001810154336001600160a01b0390911603610b695760405162461bcd60e51b815260206004820152602260248201527f596f752063616e6e6f7420626964206f6e20796f7572206f776e20617563746960448201526137b760f11b6064820152608401610263565b8060040154341015610bd65760405162461bcd60e51b815260206004820152603060248201527f426964206d7573742062652067726561746572207468616e206f72206571756160448201526f1b081d1bc81b5a5b9a5b5d5b48189a5960821b6064820152608401610263565b80600701543411610c295760405162461bcd60e51b815260206004820152601d60248201527f546865726520616c7265616479206973206120686967686572206269640000006044820152606401610263565b80600501543410610c7c5760405162461bcd60e51b815260206004820181905260248201527f4269642063616e6e6f7420626520686967686572207468616e206275796f75746044820152606401610263565b60068101546001600160a01b031615610d0a57600681015460078201546040516000926001600160a01b031691908381818185875af1925050503d8060008114610ce2576040519150601f19603f3d011682016040523d82523d6000602084013e610ce7565b606091505b5050905080610d085760405162461bcd60e51b815260040161026390611877565b505b6006810180546001600160a01b0319163390811790915534600783018190556040805185815260208101939093528201527fda0a18da71d8ebd145966339a728fc0d8ccc07c22870d561890d823c515dda6b9060600160405180910390a15050565b6040805180820190915260608152600060208201526001600160a01b03821660009081526002602052604090205460ff16610de05760405162461bcd60e51b81526020600482015260146024820152732ab9b2b9103737ba103932b3b4b9ba32b932b21760611b6044820152606401610263565b6001600160a01b038216600090815260016020526040908190208151808301909252805482908290610e11906118bf565b80601f0160208091040260200160405190810160405280929190818152602001828054610e3d906118bf565b8015610e8a5780601f10610e5f57610100808354040283529160200191610e8a565b820191906000526020600020905b815481529060010190602001808311610e6d57829003601f168201915b5050509183525050600191909101546001600160a01b031660209091015292915050565b3360009081526002602052604090205460ff1615610f0e5760405162461bcd60e51b815260206004820152601860248201527f5573657220616c726561647920726567697374657265642e00000000000000006044820152606401610263565b6040805180820182528281523360208083018290526000918252600190529190912081518190610f3e9082611948565b50602091820151600191820180546001600160a01b0319166001600160a01b039092169190911790553360008181526002909352604092839020805460ff191690921790915590517f48cac28ad4dc618e15f4c2dd5e97751182f166de97b25618318b2112aa951a2f91610fb3918490611a7c565b60405180910390a150565b600160205260009081526040902080548190610fd9906118bf565b80601f0160208091040260200160405190810160405280929190818152602001828054611005906118bf565b80156110525780601f1061102757610100808354040283529160200191611052565b820191906000526020600020905b81548152906001019060200180831161103557829003601f168201915b505050600190930154919250506001600160a01b031682565b600054811061108c5760405162461bcd60e51b815260040161026390611838565b60008082815481106110a0576110a0611861565b6000918252602090912060099091020160018101549091506001600160a01b0316331461111b5760405162461bcd60e51b8152602060048201526024808201527f4f6e6c79207468652073656c6c65722063616e20656e642074686973206175636044820152633a34b7b760e11b6064820152608401610263565b600881015460ff16156111685760405162461bcd60e51b8152602060048201526015602482015274105d58dd1a5bdb88185b1c9958591e48195b991959605a1b6044820152606401610263565b611171826112f7565b5050565b6000818154811061118557600080fd5b60009182526020909120600990910201805460018201546002830180549294506001600160a01b0390911692916111bb906118bf565b80601f01602080910402602001604051908101604052809291908181526020018280546111e7906118bf565b80156112345780601f1061120957610100808354040283529160200191611234565b820191906000526020600020905b81548152906001019060200180831161121757829003601f168201915b505050505090806003018054611249906118bf565b80601f0160208091040260200160405190810160405280929190818152602001828054611275906118bf565b80156112c25780601f10611297576101008083540402835291602001916112c2565b820191906000526020600020905b8154815290600101906020018083116112a557829003601f168201915b5050506004840154600585015460068601546007870154600890970154959692959194506001600160a01b0316925060ff1689565b600080828154811061130b5761130b611861565b60009182526020909120600990910201600881015490915060ff161561137f5760405162461bcd60e51b815260206004820152602360248201527f41756374696f6e20656e642068617320616c7265616479206265656e2063616c6044820152621b195960ea1b6064820152608401610263565b60088101805460ff1916600190811790915581015460078201546040516000926001600160a01b031691908381818185875af1925050503d80600081146113e2576040519150601f19603f3d011682016040523d82523d6000602084013e6113e7565b606091505b50509050806114345760405162461bcd60e51b8152602060048201526019602482015278151c985b9cd9995c881d1bc81cd95b1b195c8819985a5b1959603a1b6044820152606401610263565b60068201546007830154604080518681526001600160a01b0390931660208401528201527fd2aa34a4fdbbc6dff6a3e56f46e0f3ae2a31d7785ff3487aa5c95c642acea501906060016104c4565b60006020828403121561149457600080fd5b5035919050565b634e487b7160e01b600052604160045260246000fd5b600082601f8301126114c257600080fd5b813567ffffffffffffffff808211156114dd576114dd61149b565b604051601f8301601f19908116603f011681019082821181831017156115055761150561149b565b8160405283815286602085880101111561151e57600080fd5b836020870160208301376000602085830101528094505050505092915050565b600080600080600060a0868803121561155657600080fd5b853567ffffffffffffffff8082111561156e57600080fd5b61157a89838a016114b1565b9650602088013591508082111561159057600080fd5b5061159d888289016114b1565b959895975050505060408401359360608101359360809091013592509050565b6000815180845260005b818110156115e3576020818501810151868301820152016115c7565b506000602082860101526020601f19601f83011685010191505092915050565b60006020808301818452808551808352604092508286019150828160051b87010184880160005b838110156116e457603f19898403018552815180518452878101516001600160a01b031688850152868101516101208886018190529061166c828701826115bd565b9150506060808301518683038288015261168683826115bd565b92505050608080830151818701525060a080830151818701525060c0808301516116ba828801826001600160a01b03169052565b505060e082810151908601526101009182015115159190940152938601939086019060010161162a565b509098975050505050505050565b60006020828403121561170457600080fd5b81356001600160a01b038116811461171b57600080fd5b9392505050565b60208152600082516040602084015261173e60608401826115bd565b602094909401516001600160a01b0316604093909301929092525090919050565b60006020828403121561177157600080fd5b813567ffffffffffffffff81111561178857600080fd5b611794848285016114b1565b949350505050565b6040815260006117af60408301856115bd565b905060018060a01b03831660208301529392505050565b8981526001600160a01b038981166020830152610120604083018190526000916117f28483018c6115bd565b91508382036060850152611806828b6115bd565b608085019990995260a084019790975250509290931660c083015260e082015290151561010090910152949350505050565b6020808252600f908201526e125b9d985b1a5908125d195b481251608a1b604082015260600190565b634e487b7160e01b600052603260045260246000fd5b60208082526028908201527f526566756e6420746f2070726576696f757320686967686573742062696464656040820152671c8819985a5b195960c21b606082015260800190565b600181811c908216806118d357607f821691505b6020821081036118f357634e487b7160e01b600052602260045260246000fd5b50919050565b601f82111561194357600081815260208120601f850160051c810160208610156119205750805b601f850160051c820191505b8181101561193f5782815560010161192c565b5050505b505050565b815167ffffffffffffffff8111156119625761196261149b565b6119768161197084546118bf565b846118f9565b602080601f8311600181146119ab57600084156119935750858301515b600019600386901b1c1916600185901b17855561193f565b600085815260208120601f198616915b828110156119da578886015182559484019460019091019084016119bb565b50858210156119f85787850151600019600388901b60f8161c191681555b5050505050600190811b01905550565b634e487b7160e01b600052601160045260246000fd5b81810381811115611a3157611a31611a08565b92915050565b848152608060208201526000611a5060808301866115bd565b6040830194909452506060015292915050565b600060018201611a7557611a75611a08565b5060010190565b6001600160a01b0383168152604060208201819052600090611794908301846115bd56fea2646970667358221220228d4fb461f7acf945cd14ca90df6db4bba0ad31e62f29c289aace0e026b0f3664736f6c63430008150033",
  "immutableReferences": {},
  "source": "// SPDX-License-Identifier: MIT\npragma solidity ^0.8.0;\n\ncontract DecentralizedAuction {\n    struct Item {\n        uint id;\n        address payable seller;\n        string name;\n        string imageUrl;\n        uint minBid;\n        uint buyoutPrice;\n        address highestBidder;\n        uint highestBid;\n        bool ended;\n    }\n\n    struct User {\n        string username;\n        address walletAddress;\n    }\n\n    Item[] public items;\n    mapping(address => User) public users;\n    mapping(address => bool) public registered;\n\n    event UserRegistered(address userAddress, string username);\n    event AuctionCreated(uint itemId, string name, uint minBid, uint buyoutPrice);\n    event HighestBidIncreased(uint itemId, address bidder, uint amount);\n    event AuctionEnded(uint itemId, address winner, uint amount);\n    event ItemBoughtOut(uint itemId, address buyer, uint amount);\n    \n    constructor() {\n        // addItem(\"Wheat\", \"https://www.reddit.com/r/TwinTowersInPhotos/comments/u9zusc/more_wheat_field_images_1982/\", 1 ether, 5 ether, 180 minutes);\n        // addItem(\"Ragi\", \"https://th.bing.com/th/id/OIP.tKNQhH0mW7oF0wr0JLjFYwHaFE?w=222&h=180&c=7&r=0&o=5&dpr=1.3&pid=1.7\", 2 ether, 7 ether, 180 minutes);\n        // addItem(\"Jowar\", \"https://multiwood.com.pk/cdn/shop/products/Picsart_22-10-23_03-53-33-812_1000x1000.jpg?v=1666479726\", 3 ether, 10 ether, 180 minutes);\n        // addItem(\"Maize\", \"https://www.swordsantiqueweapons.com/images/s2331b.jpg\", 3 ether, 10 ether, 1 minutes);\n        // addItem(\"Cocunut\", \"https://www.hemswell-antiques.com/uploads/media/news/0001/95/thumb_94739_news_wide.jpeg\", 3 ether, 10 ether, 3 minutes);\n        // addItem(\"Cotton\", \"https://www.007.com/wp-content/uploads/2022/08/LCC-LS.jpg\", 3 ether, 10 ether, 5 minutes);\n        // addItem(\"Paddy\", \"https://unsplash.com/photos/brown-grains-on-selective-focus-photography-w-iVGVdZvt4\", 3 ether, 10 ether, 5 minutes);\n        // addItem(\"Areca Nut\", \"https://i.pcmag.com/imagery/lineupitems/06sRck1AimbfOxWwRYvEBqX.fit_lim.size_1050x578.v1569508748.jpg\", 3 ether, 10 ether, 5 minutes);\n    }\n\n    function registerUser(string memory _username) public {\n        require(!registered[msg.sender], \"User already registered.\");\n        users[msg.sender] = User(_username, msg.sender);\n        registered[msg.sender] = true;\n        emit UserRegistered(msg.sender, _username);\n    }\n\n    function getUser(address _userAddress) public view returns (User memory) {\n        require(registered[_userAddress], \"User not registered.\");\n        return users[_userAddress];\n    }\n\n    function addItem(string memory name, string memory imageUrl, uint minBid, uint buyoutPrice, uint biddingTime) public {\n        items.push(Item({\n            id: items.length,\n            seller: payable(msg.sender),\n            name: name,\n            imageUrl: imageUrl,\n            minBid: minBid,\n            buyoutPrice: buyoutPrice,\n            highestBidder: address(0),\n            highestBid: 0,\n            ended: false\n        }));\n        emit AuctionCreated(items.length - 1, name, minBid, buyoutPrice);\n    }\n\n    function bid(uint itemId) public payable {\n        require(itemId < items.length, \"Invalid Item ID\");\n        Item storage item = items[itemId];\n        require(!item.ended, \"Auction already ended\");\n        require(item.seller != msg.sender, \"You cannot bid on your own auction\");\n        require(msg.value >= item.minBid, \"Bid must be greater than or equal to minimum bid\");\n        require(msg.value > item.highestBid, \"There already is a higher bid\");\n        require(msg.value < item.buyoutPrice, \"Bid cannot be higher than buyout\");\n\n        // Refund the previous highest bidder automatically\n        if (item.highestBidder != address(0)) {\n            (bool success, ) = item.highestBidder.call{value: item.highestBid}(\"\");\n            require(success, \"Refund to previous highest bidder failed\");\n        }\n\n        // Update the highest bidder and highest bid\n        item.highestBidder = payable(msg.sender);\n        item.highestBid = msg.value;\n\n        emit HighestBidIncreased(itemId, msg.sender, msg.value);\n    }\n\n    function buyout(uint itemId) public payable {\n        require(itemId < items.length, \"Invalid Item ID\");\n        Item storage item = items[itemId];\n        require(!items[itemId].ended, \"Auction already ended.\");\n        require(msg.value == item.buyoutPrice, \"Buyout price not met.\");\n        \n        item.ended = true;\n\n        if (item.highestBidder != address(0)) {\n            (bool success, ) = item.highestBidder.call{value: item.highestBid}(\"\");\n            require(success, \"Refund to previous highest bidder failed\");\n        }\n\n        (bool sent, ) = item.seller.call{value: msg.value}(\"\");\n        require(sent, \"Transfer to seller failed\");\n        \n        emit ItemBoughtOut(itemId, msg.sender, msg.value);\n    }\n\n    function endAuction(uint itemId) internal {\n        Item storage item = items[itemId];\n        require(!item.ended, \"Auction end has already been called\");\n\n        item.ended = true;\n\n        // Transfer the highest bid amount to the seller\n        (bool sent, ) = item.seller.call{value: item.highestBid}(\"\");\n        require(sent, \"Transfer to seller failed\");\n\n        emit AuctionEnded(itemId, item.highestBidder, item.highestBid);\n    }\n\n    function manualEndAuction(uint itemId) public {\n        require(itemId < items.length, \"Invalid Item ID\");\n        Item storage item = items[itemId];\n        require(msg.sender == item.seller, \"Only the seller can end this auction\");\n        require(!item.ended, \"Auction already ended\");\n\n        endAuction(itemId);\n    }\n\n    function itemsCount() public view returns (uint) {\n        return items.length;\n    }\n\n    function getAllUserItems() public view returns (Item[] memory) {\n        require(registered[msg.sender], \"User not registered.\");\n\n        // Count the user's items\n        uint count = 0;\n        for (uint index = 0; index < items.length; index++) {\n            if (items[index].seller == msg.sender) {\n                count++;\n            }\n        }\n\n        // Allocate a memory array for the user's items\n        Item[] memory list = new Item[](count);\n\n        uint counter = 0;\n        for (uint index = 0; index < items.length; index++) {\n            if (items[index].seller == msg.sender) {\n                list[counter] = items[index];\n                counter++;\n            }\n        }\n\n        return list;\n    }\n}\n",
  "sourcePath": "E:\\AgriCrop-Connected-Hub\\backend\\contracts\\DecentralizedAuction.sol",
  "compiler": {
    "name": "solc",
    "version": "0.8.21+commit.d9974bed.Emscripten.clang"
  },
  "schemaVersion": "3.4.16",
  "updatedAt": "2025-02-05T17:19:14.377Z",
  "networkType": "ethereum",
  "devdoc": {
    "kind": "dev",
    "methods": {},
    "version": 1
  },
  "userdoc": {
    "kind": "user",
    "methods": {},
    "version": 1
  }
}